{
  "contractName": "Layer2DApp",
  "abi": [
    {
      "inputs": [
        {
          "internalType": "bytes32",
          "name": "",
          "type": "bytes32"
        }
      ],
      "name": "jointAccounts",
      "outputs": [
        {
          "internalType": "bool",
          "name": "exists",
          "type": "bool"
        },
        {
          "internalType": "uint256",
          "name": "balance1",
          "type": "uint256"
        },
        {
          "internalType": "uint256",
          "name": "balance2",
          "type": "uint256"
        }
      ],
      "stateMutability": "view",
      "type": "function",
      "constant": true
    },
    {
      "inputs": [
        {
          "internalType": "uint256",
          "name": "",
          "type": "uint256"
        }
      ],
      "name": "users",
      "outputs": [
        {
          "internalType": "string",
          "name": "name",
          "type": "string"
        },
        {
          "internalType": "bool",
          "name": "exists",
          "type": "bool"
        }
      ],
      "stateMutability": "view",
      "type": "function",
      "constant": true
    },
    {
      "inputs": [
        {
          "internalType": "uint256",
          "name": "userId",
          "type": "uint256"
        },
        {
          "internalType": "string",
          "name": "userName",
          "type": "string"
        }
      ],
      "name": "registerUser",
      "outputs": [],
      "stateMutability": "nonpayable",
      "type": "function"
    },
    {
      "inputs": [
        {
          "internalType": "uint256",
          "name": "user1",
          "type": "uint256"
        },
        {
          "internalType": "uint256",
          "name": "user2",
          "type": "uint256"
        },
        {
          "internalType": "uint256",
          "name": "initialBalance1",
          "type": "uint256"
        },
        {
          "internalType": "uint256",
          "name": "initialBalance2",
          "type": "uint256"
        }
      ],
      "name": "createAcc",
      "outputs": [],
      "stateMutability": "nonpayable",
      "type": "function"
    },
    {
      "inputs": [
        {
          "internalType": "uint256",
          "name": "from",
          "type": "uint256"
        },
        {
          "internalType": "uint256",
          "name": "to",
          "type": "uint256"
        },
        {
          "internalType": "uint256",
          "name": "amount",
          "type": "uint256"
        }
      ],
      "name": "sendAmount",
      "outputs": [
        {
          "internalType": "bool",
          "name": "",
          "type": "bool"
        }
      ],
      "stateMutability": "nonpayable",
      "type": "function"
    },
    {
      "inputs": [
        {
          "internalType": "uint256",
          "name": "user1",
          "type": "uint256"
        },
        {
          "internalType": "uint256",
          "name": "user2",
          "type": "uint256"
        }
      ],
      "name": "closeAccount",
      "outputs": [],
      "stateMutability": "nonpayable",
      "type": "function"
    },
    {
      "inputs": [
        {
          "internalType": "uint256",
          "name": "user1",
          "type": "uint256"
        },
        {
          "internalType": "uint256",
          "name": "user2",
          "type": "uint256"
        }
      ],
      "name": "getAccountBalance",
      "outputs": [
        {
          "internalType": "uint256",
          "name": "",
          "type": "uint256"
        },
        {
          "internalType": "uint256",
          "name": "",
          "type": "uint256"
        }
      ],
      "stateMutability": "view",
      "type": "function",
      "constant": true
    }
  ],
  "bytecode": "0x608060405234801561001057600080fd5b50611fa6806100206000396000f3fe608060405234801561001057600080fd5b506004361061007d5760003560e01c8063447a7a031161005b578063447a7a03146100ff5780635ce549811461013157806367bf23391461014d578063bd45d6eb1461017e5761007d565b80631c57333e14610082578063365b98b21461009e5780633f3078df146100cf575b600080fd5b61009c600480360381019061009791906117c5565b61019a565b005b6100b860048036038101906100b3919061179c565b61025b565b6040516100c6929190611b73565b60405180910390f35b6100e960048036038101906100e49190611855565b610314565b6040516100f69190611b21565b60405180910390f35b61011960048036038101906101149190611773565b6107a7565b60405161012893929190611b3c565b60405180910390f35b61014b600480360381019061014691906118a4565b6107de565b005b61016760048036038101906101629190611819565b6109c5565b604051610175929190611c63565b60405180910390f35b61019860048036038101906101939190611819565b610a73565b005b6001600083815260200190815260200160002060010160009054906101000a900460ff16156101fe576040517f08c379a00000000000000000000000000000000000000000000000000000000081526004016101f590611c23565b60405180910390fd5b8060016000848152602001908152602001600020600001908051906020019061022892919061163e565b50600180600084815260200190815260200160002060010160006101000a81548160ff0219169083151502179055505050565b600160205280600052604060002060009150905080600001805461027e90611e1f565b80601f01602080910402602001604051908101604052809291908181526020018280546102aa90611e1f565b80156102f75780601f106102cc576101008083540402835291602001916102f7565b820191906000526020600020905b8154815290600101906020018083116102da57829003601f168201915b5050505050908060010160009054906101000a900460ff16905082565b60006001600085815260200190815260200160002060010160009054906101000a900460ff16801561036657506001600084815260200190815260200160002060010160009054906101000a900460ff165b6103a5576040517f08c379a000000000000000000000000000000000000000000000000000000000815260040161039c90611c43565b60405180910390fd5b828414156103e8576040517f08c379a00000000000000000000000000000000000000000000000000000000081526004016103df90611c03565b60405180910390fd5b60006103f48585610f62565b905060008151141561040a5760009150506107a0565b60005b6001825161041b9190611d5f565b8110156105b45760006104ba838381518110610460577f4e487b7100000000000000000000000000000000000000000000000000000000600052603260045260246000fd5b6020026020010151846001856104769190611d09565b815181106104ad577f4e487b7100000000000000000000000000000000000000000000000000000000600052603260045260246000fd5b602002602001015161158f565b90506000600260008381526020019081526020016000209050836001846104e19190611d09565b81518110610518577f4e487b7100000000000000000000000000000000000000000000000000000000600052603260045260246000fd5b6020026020010151848481518110610559577f4e487b7100000000000000000000000000000000000000000000000000000000600052603260045260246000fd5b602002602001015110156105855785816001015410156105805760009450505050506107a0565b61059f565b858160020154101561059e5760009450505050506107a0565b5b505080806105ac90611e51565b91505061040d565b5060005b600182516105c69190611d5f565b81101561079957600061066583838151811061060b577f4e487b7100000000000000000000000000000000000000000000000000000000600052603260045260246000fd5b6020026020010151846001856106219190611d09565b81518110610658577f4e487b7100000000000000000000000000000000000000000000000000000000600052603260045260246000fd5b602002602001015161158f565b905060006002600083815260200190815260200160002090508360018461068c9190611d09565b815181106106c3577f4e487b7100000000000000000000000000000000000000000000000000000000600052603260045260246000fd5b6020026020010151848481518110610704577f4e487b7100000000000000000000000000000000000000000000000000000000600052603260045260246000fd5b6020026020010151101561074d57858160010160008282546107269190611d5f565b92505081905550858160020160008282546107419190611d09565b92505081905550610784565b858160020160008282546107619190611d5f565b925050819055508581600101600082825461077c9190611d09565b925050819055505b5050808061079190611e51565b9150506105b8565b5060019150505b9392505050565b60026020528060005260406000206000915090508060000160009054906101000a900460ff16908060010154908060020154905083565b6001600085815260200190815260200160002060010160009054906101000a900460ff16801561082e57506001600084815260200190815260200160002060010160009054906101000a900460ff165b61086d576040517f08c379a000000000000000000000000000000000000000000000000000000000815260040161086490611c43565b60405180910390fd5b6000610879858561158f565b90506002600082815260200190815260200160002060000160009054906101000a900460ff16156108df576040517f08c379a00000000000000000000000000000000000000000000000000000000081526004016108d690611bc3565b60405180910390fd5b60016002600083815260200190815260200160002060000160006101000a81548160ff02191690831515021790555082600260008381526020019081526020016000206001018190555081600260008381526020019081526020016000206002018190555060016000868152602001908152602001600020600201849080600181540180825580915050600190039060005260206000200160009091909190915055600160008581526020019081526020016000206002018590806001815401808255809150506001900390600052602060002001600090919091909150555050505050565b60008060006109d4858561158f565b90506002600082815260200190815260200160002060000160009054906101000a900460ff16610a39576040517f08c379a0000000000000000000000000000000000000000000000000000000008152600401610a3090611ba3565b60405180910390fd5b6002600082815260200190815260200160002060010154600260008381526020019081526020016000206002015492509250509250929050565b6001600083815260200190815260200160002060010160009054906101000a900460ff168015610ac357506001600082815260200190815260200160002060010160009054906101000a900460ff165b610b02576040517f08c379a0000000000000000000000000000000000000000000000000000000008152600401610af990611c43565b60405180910390fd5b6000610b0e838361158f565b90506002600082815260200190815260200160002060000160009054906101000a900460ff16610b73576040517f08c379a0000000000000000000000000000000000000000000000000000000008152600401610b6a90611ba3565b60405180910390fd5b60026000828152602001908152602001600020600080820160006101000a81549060ff021916905560018201600090556002820160009055505060005b6001600085815260200190815260200160002060020180549050811015610d845782600160008681526020019081526020016000206002018281548110610c20577f4e487b7100000000000000000000000000000000000000000000000000000000600052603260045260246000fd5b90600052602060002001541415610d715760016000858152602001908152602001600020600201600180600087815260200190815260200160002060020180549050610c6c9190611d5f565b81548110610ca3577f4e487b7100000000000000000000000000000000000000000000000000000000600052603260045260246000fd5b9060005260206000200154600160008681526020019081526020016000206002018281548110610cfc577f4e487b7100000000000000000000000000000000000000000000000000000000600052603260045260246000fd5b906000526020600020018190555060016000858152602001908152602001600020600201805480610d56577f4e487b7100000000000000000000000000000000000000000000000000000000600052603160045260246000fd5b60019003818190600052602060002001600090559055610d84565b8080610d7c90611e51565b915050610bb0565b5060005b6001600084815260200190815260200160002060020180549050811015610f5c5783600160008581526020019081526020016000206002018281548110610df8577f4e487b7100000000000000000000000000000000000000000000000000000000600052603260045260246000fd5b90600052602060002001541415610f495760016000848152602001908152602001600020600201600180600086815260200190815260200160002060020180549050610e449190611d5f565b81548110610e7b577f4e487b7100000000000000000000000000000000000000000000000000000000600052603260045260246000fd5b9060005260206000200154600160008581526020019081526020016000206002018281548110610ed4577f4e487b7100000000000000000000000000000000000000000000000000000000600052603260045260246000fd5b906000526020600020018190555060016000848152602001908152602001600020600201805480610f2e577f4e487b7100000000000000000000000000000000000000000000000000000000600052603160045260246000fd5b60019003818190600052602060002001600090559055610f5c565b8080610f5490611e51565b915050610d88565b50505050565b606081831415610fe357600067ffffffffffffffff811115610fad577f4e487b7100000000000000000000000000000000000000000000000000000000600052604160045260246000fd5b604051908082528060200260200182016040528015610fdb5781602001602082028036833780820191505090505b509050611589565b600061271067ffffffffffffffff811115611027577f4e487b7100000000000000000000000000000000000000000000000000000000600052604160045260246000fd5b6040519080825280602002602001820160405280156110555781602001602082028036833780820191505090505b509050600061271067ffffffffffffffff81111561109c577f4e487b7100000000000000000000000000000000000000000000000000000000600052604160045260246000fd5b6040519080825280602002602001820160405280156110ca5781602001602082028036833780820191505090505b509050600080868482806110dd90611e51565b935081518110611116577f4e487b7100000000000000000000000000000000000000000000000000000000600052603260045260246000fd5b602002602001018181525050600183888151811061115d577f4e487b7100000000000000000000000000000000000000000000000000000000600052603260045260246000fd5b60200260200101901515908115158152505060005b818310801561117f575080155b1561137f57600085848061119290611e51565b9550815181106111cb577f4e487b7100000000000000000000000000000000000000000000000000000000600052603260045260246000fd5b6020026020010151905060005b6001600083815260200190815260200160002060020180549050811015611378576000600160008481526020019081526020016000206002018281548110611249577f4e487b7100000000000000000000000000000000000000000000000000000000600052603260045260246000fd5b9060005260206000200154905086818151811061128f577f4e487b7100000000000000000000000000000000000000000000000000000000600052603260045260246000fd5b60200260200101516113645760018782815181106112d6577f4e487b7100000000000000000000000000000000000000000000000000000000600052603260045260246000fd5b60200260200101901515908115158152505082600080838152602001908152602001600020819055508088868061130c90611e51565b975081518110611345577f4e487b7100000000000000000000000000000000000000000000000000000000600052603260045260246000fd5b60200260200101818152505089811415611363576001935050611378565b5b50808061137090611e51565b9150506111d8565b5050611172565b8061140057600067ffffffffffffffff8111156113c5577f4e487b7100000000000000000000000000000000000000000000000000000000600052604160045260246000fd5b6040519080825280602002602001820160405280156113f35781602001602082028036833780820191505090505b5095505050505050611589565b6000808890505b89811461143657818061141990611e51565b925050600080828152602001908152602001600020549050611407565b60006001836114459190611d09565b67ffffffffffffffff811115611484577f4e487b7100000000000000000000000000000000000000000000000000000000600052604160045260246000fd5b6040519080825280602002602001820160405280156114b25781602001602082028036833780820191505090505b50905089915060008390505b60008111156115355782828281518110611501577f4e487b7100000000000000000000000000000000000000000000000000000000600052603260045260246000fd5b602002602001018181525050600080848152602001908152602001600020549250808061152d90611df5565b9150506114be565b508a81600081518110611571577f4e487b7100000000000000000000000000000000000000000000000000000000600052603260045260246000fd5b60200260200101818152505080985050505050505050505b92915050565b6000818314156115d4576040517f08c379a00000000000000000000000000000000000000000000000000000000081526004016115cb90611be3565b60405180910390fd5b8183101561160c5782826040516020016115ef929190611af5565b604051602081830303815290604052805190602001209050611638565b818360405160200161161f929190611af5565b6040516020818303038152906040528051906020012090505b92915050565b82805461164a90611e1f565b90600052602060002090601f01602090048101928261166c57600085556116b3565b82601f1061168557805160ff19168380011785556116b3565b828001600101855582156116b3579182015b828111156116b2578251825591602001919060010190611697565b5b5090506116c091906116c4565b5090565b5b808211156116dd5760008160009055506001016116c5565b5090565b60006116f46116ef84611cbd565b611c8c565b90508281526020810184848401111561170c57600080fd5b611717848285611db3565b509392505050565b60008135905061172e81611f42565b92915050565b600082601f83011261174557600080fd5b81356117558482602086016116e1565b91505092915050565b60008135905061176d81611f59565b92915050565b60006020828403121561178557600080fd5b60006117938482850161171f565b91505092915050565b6000602082840312156117ae57600080fd5b60006117bc8482850161175e565b91505092915050565b600080604083850312156117d857600080fd5b60006117e68582860161175e565b925050602083013567ffffffffffffffff81111561180357600080fd5b61180f85828601611734565b9150509250929050565b6000806040838503121561182c57600080fd5b600061183a8582860161175e565b925050602061184b8582860161175e565b9150509250929050565b60008060006060848603121561186a57600080fd5b60006118788682870161175e565b93505060206118898682870161175e565b925050604061189a8682870161175e565b9150509250925092565b600080600080608085870312156118ba57600080fd5b60006118c88782880161175e565b94505060206118d98782880161175e565b93505060406118ea8782880161175e565b92505060606118fb8782880161175e565b91505092959194509250565b61191081611d93565b82525050565b600061192182611ced565b61192b8185611cf8565b935061193b818560208601611dc2565b61194481611f31565b840191505092915050565b600061195c601c83611cf8565b91507f4a6f696e74206163636f756e7420646f6573206e6f74206578697374000000006000830152602082019050919050565b600061199c601c83611cf8565b91507f4a6f696e74206163636f756e7420616c726561647920657869737473000000006000830152602082019050919050565b60006119dc601f83611cf8565b91507f43616e6e6f7420637265617465206163636f756e7420776974682073656c66006000830152602082019050919050565b6000611a1c601383611cf8565b91507f43616e6e6f742073656e6420746f2073656c66000000000000000000000000006000830152602082019050919050565b6000611a5c601383611cf8565b91507f5573657220616c726561647920657869737473000000000000000000000000006000830152602082019050919050565b6000611a9c601083611cf8565b91507f5573657273206d757374206578697374000000000000000000000000000000006000830152602082019050919050565b611ad881611da9565b82525050565b611aef611aea82611da9565b611e9a565b82525050565b6000611b018285611ade565b602082019150611b118284611ade565b6020820191508190509392505050565b6000602082019050611b366000830184611907565b92915050565b6000606082019050611b516000830186611907565b611b5e6020830185611acf565b611b6b6040830184611acf565b949350505050565b60006040820190508181036000830152611b8d8185611916565b9050611b9c6020830184611907565b9392505050565b60006020820190508181036000830152611bbc8161194f565b9050919050565b60006020820190508181036000830152611bdc8161198f565b9050919050565b60006020820190508181036000830152611bfc816119cf565b9050919050565b60006020820190508181036000830152611c1c81611a0f565b9050919050565b60006020820190508181036000830152611c3c81611a4f565b9050919050565b60006020820190508181036000830152611c5c81611a8f565b9050919050565b6000604082019050611c786000830185611acf565b611c856020830184611acf565b9392505050565b6000604051905081810181811067ffffffffffffffff82111715611cb357611cb2611f02565b5b8060405250919050565b600067ffffffffffffffff821115611cd857611cd7611f02565b5b601f19601f8301169050602081019050919050565b600081519050919050565b600082825260208201905092915050565b6000611d1482611da9565b9150611d1f83611da9565b9250827fffffffffffffffffffffffffffffffffffffffffffffffffffffffffffffffff03821115611d5457611d53611ea4565b5b828201905092915050565b6000611d6a82611da9565b9150611d7583611da9565b925082821015611d8857611d87611ea4565b5b828203905092915050565b60008115159050919050565b6000819050919050565b6000819050919050565b82818337600083830152505050565b60005b83811015611de0578082015181840152602081019050611dc5565b83811115611def576000848401525b50505050565b6000611e0082611da9565b91506000821415611e1457611e13611ea4565b5b600182039050919050565b60006002820490506001821680611e3757607f821691505b60208210811415611e4b57611e4a611ed3565b5b50919050565b6000611e5c82611da9565b91507fffffffffffffffffffffffffffffffffffffffffffffffffffffffffffffffff821415611e8f57611e8e611ea4565b5b600182019050919050565b6000819050919050565b7f4e487b7100000000000000000000000000000000000000000000000000000000600052601160045260246000fd5b7f4e487b7100000000000000000000000000000000000000000000000000000000600052602260045260246000fd5b7f4e487b7100000000000000000000000000000000000000000000000000000000600052604160045260246000fd5b6000601f19601f8301169050919050565b611f4b81611d9f565b8114611f5657600080fd5b50565b611f6281611da9565b8114611f6d57600080fd5b5056fea264697066735822122022233c5fccdb376428473a7c9c298acc3ca4305d68a5f0c44c1fbfeb56e7f36564736f6c63430008000033",
  "immutableReferences": {},
  "source": "// SPDX-License-Identifier: MIT\npragma solidity ^0.8.0;\n\ncontract Layer2DApp {\n    struct User {\n        string name;\n        bool exists;\n        uint[] connectedUsers;\n    }\n    \n    struct JointAccount {\n        bool exists;\n        uint balance1;  // balance of user1\n        uint balance2;  // balance of user2\n    }\n    \n    // Store parent mapping at contract level\n    mapping(uint => uint) private pathParent;\n    mapping(uint => User) public users;\n    // Maps hash of user IDs to their joint account\n    mapping(bytes32 => JointAccount) public jointAccounts;\n    \n    // Helper function to create consistent hash for joint accounts\n    function createAccountHash(uint user1, uint user2) private pure returns (bytes32) {\n        require(user1 != user2, \"Cannot create account with self\");\n        if (user1 < user2) {\n            return keccak256(abi.encodePacked(user1, user2));\n        }\n        return keccak256(abi.encodePacked(user2, user1));\n    }\n    \n    function registerUser(uint userId, string memory userName) public {\n        require(!users[userId].exists, \"User already exists\");\n        users[userId].name = userName;\n        users[userId].exists = true;\n    }\n    \n    function createAcc(uint user1, uint user2, uint initialBalance1, uint initialBalance2) public {\n        require(users[user1].exists && users[user2].exists, \"Users must exist\");\n        bytes32 accountHash = createAccountHash(user1, user2);\n        require(!jointAccounts[accountHash].exists, \"Joint account already exists\");\n        \n        // Initialize joint account with provided balances\n        jointAccounts[accountHash].exists = true;\n        jointAccounts[accountHash].balance1 = initialBalance1;\n        jointAccounts[accountHash].balance2 = initialBalance2;\n        \n        // Add users to each other's connected users list\n        users[user1].connectedUsers.push(user2);\n        users[user2].connectedUsers.push(user1);\n    }\n    \n    // Helper function to find path between users using BFS\n    function findPath(uint start, uint end) private returns (uint[] memory) {\n        if (start == end) return new uint[](0);\n        \n        uint[] memory queue = new uint[](10000);\n        bool[] memory visited = new bool[](10000);\n        \n        uint front = 0;\n        uint back = 0;\n        \n        queue[back++] = start;\n        visited[start] = true;\n        \n        bool found = false;\n        while (front < back && !found) {\n            uint currentNode = queue[front++];\n            \n            for (uint i = 0; i < users[currentNode].connectedUsers.length; i++) {\n                uint neighbor = users[currentNode].connectedUsers[i];\n                if (!visited[neighbor]) {\n                    visited[neighbor] = true;\n                    pathParent[neighbor] = currentNode;\n                    queue[back++] = neighbor;\n                    \n                    if (neighbor == end) {\n                        found = true;\n                        break;\n                    }\n                }\n            }\n        }\n        \n        if (!found) return new uint[](0);\n        \n        // Reconstruct path\n        uint pathLength = 0;\n        uint curr = end;\n        while (curr != start) {\n            pathLength++;\n            curr = pathParent[curr];\n        }\n        \n        uint[] memory path = new uint[](pathLength + 1);\n        curr = end;\n        for (uint i = pathLength; i > 0; i--) {\n            path[i] = curr;\n            curr = pathParent[curr];\n        }\n        path[0] = start;\n        \n        return path;\n    }\n    \n    function sendAmount(uint from, uint to, uint amount) public returns (bool) {\n        require(users[from].exists && users[to].exists, \"Users must exist\");\n        require(from != to, \"Cannot send to self\");\n        \n        uint[] memory path = findPath(from, to);\n        if (path.length == 0) return false;\n        \n        // Check if entire path has sufficient balance\n        for (uint i = 0; i < path.length - 1; i++) {\n            bytes32 accountHash = createAccountHash(path[i], path[i + 1]);\n            JointAccount storage account = jointAccounts[accountHash];\n            \n            if (path[i] < path[i + 1]) {\n                if (account.balance1 < amount) return false;\n            } else {\n                if (account.balance2 < amount) return false;\n            }\n        }\n        \n        // Transfer amount along the path\n        for (uint i = 0; i < path.length - 1; i++) {\n            bytes32 accountHash = createAccountHash(path[i], path[i + 1]);\n            JointAccount storage account = jointAccounts[accountHash];\n            \n            if (path[i] < path[i + 1]) {\n                account.balance1 -= amount;\n                account.balance2 += amount;\n            } else {\n                account.balance2 -= amount;\n                account.balance1 += amount;\n            }\n        }\n        \n        return true;\n    }\n    \n    function closeAccount(uint user1, uint user2) public {\n        require(users[user1].exists && users[user2].exists, \"Users must exist\");\n        bytes32 accountHash = createAccountHash(user1, user2);\n        require(jointAccounts[accountHash].exists, \"Joint account does not exist\");\n        \n        // Remove the account\n        delete jointAccounts[accountHash];\n        \n        // Remove users from each other's connected users list\n        for (uint i = 0; i < users[user1].connectedUsers.length; i++) {\n            if (users[user1].connectedUsers[i] == user2) {\n                users[user1].connectedUsers[i] = users[user1].connectedUsers[users[user1].connectedUsers.length - 1];\n                users[user1].connectedUsers.pop();\n                break;\n            }\n        }\n        \n        for (uint i = 0; i < users[user2].connectedUsers.length; i++) {\n            if (users[user2].connectedUsers[i] == user1) {\n                users[user2].connectedUsers[i] = users[user2].connectedUsers[users[user2].connectedUsers.length - 1];\n                users[user2].connectedUsers.pop();\n                break;\n            }\n        }\n    }\n    \n    // Helper function to get account balance\n    function getAccountBalance(uint user1, uint user2) public view returns (uint, uint) {\n        bytes32 accountHash = createAccountHash(user1, user2);\n        require(jointAccounts[accountHash].exists, \"Joint account does not exist\");\n        return (jointAccounts[accountHash].balance1, jointAccounts[accountHash].balance2);\n    }\n}",
  "sourcePath": "/Users/suvadipchakraborty/Documents/Blockassign/layer2-dapp/contracts/Layer2DApp.sol",
  "compiler": {
    "name": "solc",
    "version": "0.8.0+commit.c7dfd78e.Emscripten.clang"
  },
  "schemaVersion": "3.4.16",
  "updatedAt": "2024-11-18T13:20:21.071Z",
  "networkType": "ethereum",
  "devdoc": {
    "kind": "dev",
    "methods": {},
    "version": 1
  },
  "userdoc": {
    "kind": "user",
    "methods": {},
    "version": 1
  }
}